{
    "contractName": "FootballData",
    "abi": [
        {
            "inputs": [],
            "stateMutability": "nonpayable",
            "type": "constructor"
        },
        {
            "inputs": [
                {
                    "internalType": "string",
                    "name": "homeTeam",
                    "type": "string"
                },
                {
                    "internalType": "string",
                    "name": "awayTeam",
                    "type": "string"
                },
                {
                    "internalType": "string",
                    "name": "score",
                    "type": "string"
                },
                {
                    "internalType": "uint256",
                    "name": "endTime",
                    "type": "uint256"
                }
            ],
            "name": "addMatch",
            "outputs": [],
            "stateMutability": "nonpayable",
            "type": "function"
        },
        {
            "inputs": [
                {
                    "internalType": "uint256",
                    "name": "index",
                    "type": "uint256"
                }
            ],
            "name": "finishMatches",
            "outputs": [],
            "stateMutability": "nonpayable",
            "type": "function"
        },
        {
            "inputs": [],
            "name": "getMatches",
            "outputs": [
                {
                    "components": [
                        {
                            "internalType": "string",
                            "name": "homeTeam",
                            "type": "string"
                        },
                        {
                            "internalType": "string",
                            "name": "awayTeam",
                            "type": "string"
                        },
                        {
                            "internalType": "string",
                            "name": "score",
                            "type": "string"
                        },
                        {
                            "internalType": "bool",
                            "name": "isFinished",
                            "type": "bool"
                        },
                        {
                            "internalType": "uint256",
                            "name": "endTime",
                            "type": "uint256"
                        }
                    ],
                    "internalType": "struct IFootballData.Match[]",
                    "name": "",
                    "type": "tuple[]"
                }
            ],
            "stateMutability": "view",
            "type": "function"
        },
        {
            "inputs": [
                {
                    "internalType": "uint256",
                    "name": "",
                    "type": "uint256"
                }
            ],
            "name": "matches",
            "outputs": [
                {
                    "internalType": "string",
                    "name": "homeTeam",
                    "type": "string"
                },
                {
                    "internalType": "string",
                    "name": "awayTeam",
                    "type": "string"
                },
                {
                    "internalType": "string",
                    "name": "score",
                    "type": "string"
                },
                {
                    "internalType": "bool",
                    "name": "isFinished",
                    "type": "bool"
                },
                {
                    "internalType": "uint256",
                    "name": "endTime",
                    "type": "uint256"
                }
            ],
            "stateMutability": "view",
            "type": "function"
        },
        {
            "inputs": [],
            "name": "oracle",
            "outputs": [
                {
                    "internalType": "address",
                    "name": "",
                    "type": "address"
                }
            ],
            "stateMutability": "view",
            "type": "function"
        },
        {
            "inputs": [
                {
                    "internalType": "uint256",
                    "name": "index",
                    "type": "uint256"
                },
                {
                    "internalType": "string",
                    "name": "newScore",
                    "type": "string"
                }
            ],
            "name": "updateScore",
            "outputs": [],
            "stateMutability": "nonpayable",
            "type": "function"
        }
    ],
    "bytecode": "60808060405234602757600180546001600160a01b03191633179055610bb9908161002c8239f35b5f80fdfe6080806040526004361015610012575f80fd5b5f3560e01c9081632c70120e14610790575080634768d4ef146106ef5780637dc0d1d0146106c75780638a2954fd14610679578063934965bb146102345763d179277d1461005e575f80fd5b346102305760403660031901126102305760043560243567ffffffffffffffff811161023057610092903690600401610a92565b906100a860018060a01b03600154163314610ae8565b6100b45f548210610b40565b60ff60036100c183610930565b500154166101eb576100d4600291610930565b5001815167ffffffffffffffff81116101d7576100f1825461097c565b601f8111610192575b50602092601f821160011461013657928192935f9261012b575b50505f19600383901b1c191660019190911b179055005b015190505f80610114565b601f19821693835f52805f20915f5b86811061017a5750836001959610610162575b505050811b019055005b01515f1960f88460031b161c191690555f8080610158565b91926020600181928685015181550194019201610145565b825f5260205f20601f830160051c810191602084106101cd575b601f0160051c01905b8181106101c257506100fa565b5f81556001016101b5565b90915081906101ac565b634e487b7160e01b5f52604160045260245ffd5b60405162461bcd60e51b815260206004820152601960248201527f4d6174636820697320616c72656164792066696e6973686564000000000000006044820152606490fd5b5f80fd5b346102305760803660031901126102305760043567ffffffffffffffff811161023057610265903690600401610a92565b60243567ffffffffffffffff811161023057610285903690600401610a92565b9060443567ffffffffffffffff8111610230576102a6903690600401610a92565b916102bc60018060a01b03600154163314610ae8565b604051916102c9836109b4565b82526020820190815260408201928352606082015f8152608083019160643583525f54680100000000000000008110156101d75780600161030c92015f55610930565b949094610666575180519067ffffffffffffffff82116101d7578190610332875461097c565b601f8111610616575b50602090601f83116001146105b3575f926105a8575b50508160011b915f199060031b1c19161784555b518051600185019167ffffffffffffffff82116101d7578190610388845461097c565b601f8111610558575b50602090601f83116001146104f5575f926104ea575b50508160011b915f199060031b1c19161790555b6002830193519384519467ffffffffffffffff86116101d7576103de825461097c565b601f81116104a5575b50602090601f871160011461043f57958091600496975f92610434575b50508160011b915f199060031b1c19161790555b600384019051151560ff80198354169116179055519101555f80f35b015190508780610404565b90601f19871691835f52815f20925f5b81811061048d57509160019391896004999a9410610475575b505050811b019055610418565b01515f1960f88460031b161c19169055878080610468565b9293602060018192878601518155019501930161044f565b825f5260205f20601f880160051c810191602089106104e0575b601f0160051c01905b8181106104d557506103e7565b5f81556001016104c8565b90915081906104bf565b0151905087806103a7565b5f8581528281209350601f198516905b8181106105405750908460019594939210610528575b505050811b0190556103bb565b01515f1960f88460031b161c1916905587808061051b565b92936020600181928786015181550195019301610505565b909150835f5260205f20601f840160051c8101916020851061059e575b90601f859493920160051c01905b8181106105905750610391565b5f8155849350600101610583565b9091508190610575565b015190508780610351565b5f8881528281209350601f198516905b8181106105fe57509084600195949392106105e6575b505050811b018455610365565b01515f1960f88460031b161c191690558780806105d9565b929360206001819287860151815501950193016105c3565b909150865f5260205f20601f840160051c8101916020851061065c575b90601f859493920160051c01905b81811061064e575061033b565b5f8155849350600101610641565b9091508190610633565b634e487b7160e01b5f525f60045260245ffd5b346102305760203660031901126102305760036106b86004356106a760018060a01b03600154163314610ae8565b6106b35f548210610b40565b610930565b5001805460ff19166001179055005b34610230575f366003190112610230576001546040516001600160a01b039091168152602090f35b34610230576020366003190112610230576004355f548110156102305761071861076391610930565b50610722816109f2565b9061072f600182016109f2565b61077f61073e600284016109f2565b610771600460ff6003870154169501549360405197889760a0895260a089019061090c565b90878203602089015261090c565b90858203604087015261090c565b911515606084015260808301520390f35b34610230575f366003190112610230575f5467ffffffffffffffff81116101d7576107c160208260051b01836109d0565b8082526020820190815f80527f290decd9548b62a8d60345a988386fc84ba6bc95484008f6362f93160ef3e5635f915b8383106108a757848660405191829160208301906020845251809152604083019060408160051b85010192915f905b82821061082f57505050500390f35b919360019193955060208091603f19898203018552875190608080610885610873610863865160a0875260a087019061090c565b878701518682038988015261090c565b6040860151858203604087015261090c565b9360608101511515606085015201519101529601920192018594939192610820565b600560206001926040516108ba816109b4565b6108c3866109f2565b81526108d08587016109f2565b838201526108e0600287016109f2565b604082015260ff60038701541615156060820152600486015460808201528152019201920191906107f1565b805180835260209291819084018484015e5f828201840152601f01601f1916010190565b5f54811015610968575f8080526005919091027f290decd9548b62a8d60345a988386fc84ba6bc95484008f6362f93160ef3e5630191565b634e487b7160e01b5f52603260045260245ffd5b90600182811c921680156109aa575b602083101461099657565b634e487b7160e01b5f52602260045260245ffd5b91607f169161098b565b60a0810190811067ffffffffffffffff8211176101d757604052565b90601f8019910116810190811067ffffffffffffffff8211176101d757604052565b9060405191825f825492610a058461097c565b8084529360018116908115610a705750600114610a2c575b50610a2a925003836109d0565b565b90505f9291925260205f20905f915b818310610a54575050906020610a2a928201015f610a1d565b6020919350806001915483858901015201910190918492610a3b565b905060209250610a2a94915060ff191682840152151560051b8201015f610a1d565b81601f820112156102305780359067ffffffffffffffff82116101d75760405192610ac7601f8401601f1916602001856109d0565b8284526020838301011161023057815f926020809301838601378301015290565b15610aef57565b60405162461bcd60e51b815260206004820152602360248201527f4f6e6c79206f7261636c652063616e20706572666f726d20746869732061637460448201526234b7b760e91b6064820152608490fd5b15610b4757565b60405162461bcd60e51b815260206004820152601460248201527313585d18da08191bd95cc81b9bdd08195e1a5cdd60621b6044820152606490fdfea2646970667358221220b34a85f874c4fbb71a33184ed1d61961fa215562c0753ec739006b668fd963ac64736f6c634300081c0033",
    "sourcePath": "c:/Users/Egemen/Documents/GitHub/egepoly-hub/contracts/FootballData.sol",
    "compiler": {
        "name": "solc",
        "version": "0.8.28+commit.7893614a"
    },
    "functionHashes": {
        "addMatch(string,string,string,uint256)": "934965bb",
        "finishMatches(uint256)": "8a2954fd",
        "getMatches()": "2c70120e",
        "matches(uint256)": "4768d4ef",
        "oracle()": "7dc0d1d0",
        "updateScore(uint256,string)": "d179277d"
    },
    "gasEstimates": {
        "creation": {
            "codeDepositCost": "600200",
            "executionCost": "24874",
            "totalCost": "625074"
        },
        "external": {
            "addMatch(string,string,string,uint256)": "infinite",
            "finishMatches(uint256)": "30930",
            "getMatches()": "infinite",
            "matches(uint256)": "infinite",
            "oracle()": "2324",
            "updateScore(uint256,string)": "infinite"
        }
    }
}