{
    "contractName": "FootballData",
    "abi": [
        {
            "inputs": [],
            "stateMutability": "nonpayable",
            "type": "constructor"
        },
        {
            "inputs": [
                {
                    "internalType": "string",
                    "name": "homeTeam",
                    "type": "string"
                },
                {
                    "internalType": "string",
                    "name": "awayTeam",
                    "type": "string"
                },
                {
                    "internalType": "uint256",
                    "name": "endTime",
                    "type": "uint256"
                }
            ],
            "name": "addMatch",
            "outputs": [],
            "stateMutability": "nonpayable",
            "type": "function"
        },
        {
            "inputs": [
                {
                    "internalType": "uint256",
                    "name": "index",
                    "type": "uint256"
                }
            ],
            "name": "finishMatches",
            "outputs": [],
            "stateMutability": "nonpayable",
            "type": "function"
        },
        {
            "inputs": [],
            "name": "getMatches",
            "outputs": [
                {
                    "components": [
                        {
                            "internalType": "string",
                            "name": "homeTeam",
                            "type": "string"
                        },
                        {
                            "internalType": "string",
                            "name": "awayTeam",
                            "type": "string"
                        },
                        {
                            "internalType": "string",
                            "name": "score",
                            "type": "string"
                        },
                        {
                            "internalType": "bool",
                            "name": "isFinished",
                            "type": "bool"
                        },
                        {
                            "internalType": "uint256",
                            "name": "endTime",
                            "type": "uint256"
                        }
                    ],
                    "internalType": "struct FootballData.Match[]",
                    "name": "",
                    "type": "tuple[]"
                }
            ],
            "stateMutability": "view",
            "type": "function"
        },
        {
            "inputs": [
                {
                    "internalType": "uint256",
                    "name": "",
                    "type": "uint256"
                }
            ],
            "name": "matches",
            "outputs": [
                {
                    "internalType": "string",
                    "name": "homeTeam",
                    "type": "string"
                },
                {
                    "internalType": "string",
                    "name": "awayTeam",
                    "type": "string"
                },
                {
                    "internalType": "string",
                    "name": "score",
                    "type": "string"
                },
                {
                    "internalType": "bool",
                    "name": "isFinished",
                    "type": "bool"
                },
                {
                    "internalType": "uint256",
                    "name": "endTime",
                    "type": "uint256"
                }
            ],
            "stateMutability": "view",
            "type": "function"
        },
        {
            "inputs": [],
            "name": "oracle",
            "outputs": [
                {
                    "internalType": "address",
                    "name": "",
                    "type": "address"
                }
            ],
            "stateMutability": "view",
            "type": "function"
        },
        {
            "inputs": [
                {
                    "internalType": "uint256",
                    "name": "index",
                    "type": "uint256"
                },
                {
                    "internalType": "string",
                    "name": "newScore",
                    "type": "string"
                }
            ],
            "name": "updateScore",
            "outputs": [],
            "stateMutability": "nonpayable",
            "type": "function"
        }
    ],
    "bytecode": "60808060405234602757600180546001600160a01b03191633179055610bcc908161002c8239f35b5f80fdfe6080806040526004361015610012575f80fd5b5f3560e01c9081632c70120e14610757575080634768d4ef146106b65780637dc0d1d01461068e5780638a2954fd14610636578063d179277d146104b95763fad54f3a1461005e575f80fd5b346104b55760603660031901126104b55760043567ffffffffffffffff81116104b55761008f903690600401610a59565b60243567ffffffffffffffff81116104b5576100af903690600401610a59565b906100c560018060a01b03600154163314610aaf565b604051906100d28261097b565b815260208101918252604051916100ea604084610997565b60038352620302d360ec1b602084015260408201928352606082015f8152608083019160443583525f54680100000000000000008110156103125780600161013492015f556108f7565b9490946104a2575180519067ffffffffffffffff821161031257819061015a8754610943565b601f8111610452575b50602090601f83116001146103ef575f926103e4575b50508160011b915f199060031b1c19161784555b518051600185019167ffffffffffffffff82116103125781906101b08454610943565b601f8111610394575b50602090601f8311600114610331575f92610326575b50508160011b915f199060031b1c19161790555b6002830193519384519467ffffffffffffffff8611610312576102068254610943565b601f81116102cd575b50602090601f871160011461026757958091600496975f9261025c575b50508160011b915f199060031b1c19161790555b600384019051151560ff80198354169116179055519101555f80f35b015190505f8061022c565b90601f19871691835f52815f20925f5b8181106102b557509160019391896004999a941061029d575b505050811b019055610240565b01515f1960f88460031b161c191690555f8080610290565b92936020600181928786015181550195019301610277565b825f5260205f20601f880160051c81019160208910610308575b601f0160051c01905b8181106102fd575061020f565b5f81556001016102f0565b90915081906102e7565b634e487b7160e01b5f52604160045260245ffd5b015190505f806101cf565b5f8581528281209350601f198516905b81811061037c5750908460019594939210610364575b505050811b0190556101e3565b01515f1960f88460031b161c191690555f8080610357565b92936020600181928786015181550195019301610341565b909150835f5260205f20601f840160051c810191602085106103da575b90601f859493920160051c01905b8181106103cc57506101b9565b5f81558493506001016103bf565b90915081906103b1565b015190505f80610179565b5f8881528281209350601f198516905b81811061043a5750908460019594939210610422575b505050811b01845561018d565b01515f1960f88460031b161c191690555f8080610415565b929360206001819287860151815501950193016103ff565b909150865f5260205f20601f840160051c81019160208510610498575b90601f859493920160051c01905b81811061048a5750610163565b5f815584935060010161047d565b909150819061046f565b634e487b7160e01b5f525f60045260245ffd5b5f80fd5b346104b55760403660031901126104b55760043560243567ffffffffffffffff81116104b5576105336104f26002923690600401610a59565b9261050860018060a01b03600154163314610aaf565b6105145f548210610b07565b61052e60ff6003610524846108f7565b5001541615610b4a565b6108f7565b5001815167ffffffffffffffff8111610312576105508254610943565b601f81116105f1575b50602092601f821160011461059557928192935f9261058a575b50505f19600383901b1c191660019190911b179055005b015190508380610573565b601f19821693835f52805f20915f5b8681106105d957508360019596106105c1575b505050811b019055005b01515f1960f88460031b161c191690558380806105b7565b919260206001819286850151815501940192016105a4565b825f5260205f20601f830160051c8101916020841061062c575b601f0160051c01905b8181106106215750610559565b5f8155600101610614565b909150819061060b565b346104b55760203660031901126104b557600361067f60043561066460018060a01b03600154163314610aaf565b6106705f548210610b07565b61052e60ff84610524846108f7565b5001805460ff19166001179055005b346104b5575f3660031901126104b5576001546040516001600160a01b039091168152602090f35b346104b55760203660031901126104b5576004355f548110156104b5576106df61072a916108f7565b506106e9816109b9565b906106f6600182016109b9565b610746610705600284016109b9565b610738600460ff6003870154169501549360405197889760a0895260a08901906108d3565b9087820360208901526108d3565b9085820360408701526108d3565b911515606084015260808301520390f35b346104b5575f3660031901126104b5575f5467ffffffffffffffff81116103125761078860208260051b0183610997565b8082526020820190815f80527f290decd9548b62a8d60345a988386fc84ba6bc95484008f6362f93160ef3e5635f915b83831061086e57848660405191829160208301906020845251809152604083019060408160051b85010192915f905b8282106107f657505050500390f35b919360019193955060208091603f1989820301855287519060808061084c61083a61082a865160a0875260a08701906108d3565b87870151868203898801526108d3565b604086015185820360408701526108d3565b93606081015115156060850152015191015296019201920185949391926107e7565b600560206001926040516108818161097b565b61088a866109b9565b81526108978587016109b9565b838201526108a7600287016109b9565b604082015260ff60038701541615156060820152600486015460808201528152019201920191906107b8565b805180835260209291819084018484015e5f828201840152601f01601f1916010190565b5f5481101561092f575f8080526005919091027f290decd9548b62a8d60345a988386fc84ba6bc95484008f6362f93160ef3e5630191565b634e487b7160e01b5f52603260045260245ffd5b90600182811c92168015610971575b602083101461095d57565b634e487b7160e01b5f52602260045260245ffd5b91607f1691610952565b60a0810190811067ffffffffffffffff82111761031257604052565b90601f8019910116810190811067ffffffffffffffff82111761031257604052565b9060405191825f8254926109cc84610943565b8084529360018116908115610a3757506001146109f3575b506109f192500383610997565b565b90505f9291925260205f20905f915b818310610a1b5750509060206109f1928201015f6109e4565b6020919350806001915483858901015201910190918492610a02565b9050602092506109f194915060ff191682840152151560051b8201015f6109e4565b81601f820112156104b55780359067ffffffffffffffff82116103125760405192610a8e601f8401601f191660200185610997565b828452602083830101116104b557815f926020809301838601378301015290565b15610ab657565b60405162461bcd60e51b815260206004820152602360248201527f4f6e6c79206f7261636c652063616e20706572666f726d20746869732061637460448201526234b7b760e91b6064820152608490fd5b15610b0e57565b60405162461bcd60e51b815260206004820152601460248201527313585d18da08191bd95cc81b9bdd08195e1a5cdd60621b6044820152606490fd5b15610b5157565b60405162461bcd60e51b815260206004820152601960248201527f4d6174636820697320616c72656164792066696e6973686564000000000000006044820152606490fdfea2646970667358221220c36546a3b2cdda9e9db326b7ec1fb96ddae03c891dc5323f34951ceea4161e0864736f6c634300081c0033",
    "sourcePath": "c:/Users/Egemen/Documents/GitHub/egepoly-hub/contracts/FootballData.sol",
    "compiler": {
        "name": "solc",
        "version": "0.8.28+commit.7893614a"
    },
    "functionHashes": {
        "addMatch(string,string,uint256)": "fad54f3a",
        "finishMatches(uint256)": "8a2954fd",
        "getMatches()": "2c70120e",
        "matches(uint256)": "4768d4ef",
        "oracle()": "7dc0d1d0",
        "updateScore(uint256,string)": "d179277d"
    },
    "gasEstimates": {
        "creation": {
            "codeDepositCost": "604000",
            "executionCost": "24881",
            "totalCost": "628881"
        },
        "external": {
            "addMatch(string,string,uint256)": "infinite",
            "finishMatches(uint256)": "infinite",
            "getMatches()": "infinite",
            "matches(uint256)": "infinite",
            "oracle()": "2324",
            "updateScore(uint256,string)": "infinite"
        }
    }
}