{
  "_format": "hh-sol-artifact-1",
  "contractName": "BetContract",
  "sourceName": "contracts/BetContract.sol",
  "abi": [
    {
      "inputs": [
        {
          "internalType": "address",
          "name": "_footballDataContract",
          "type": "address"
        },
        {
          "internalType": "address",
          "name": "_commissionAddress",
          "type": "address"
        }
      ],
      "stateMutability": "nonpayable",
      "type": "constructor"
    },
    {
      "inputs": [],
      "name": "commissionAddress",
      "outputs": [
        {
          "internalType": "address",
          "name": "",
          "type": "address"
        }
      ],
      "stateMutability": "view",
      "type": "function"
    },
    {
      "inputs": [
        {
          "internalType": "uint256",
          "name": "matchIndex",
          "type": "uint256"
        }
      ],
      "name": "distributeRewards",
      "outputs": [],
      "stateMutability": "nonpayable",
      "type": "function"
    },
    {
      "inputs": [],
      "name": "footballDataContract",
      "outputs": [
        {
          "internalType": "contract IFootballData",
          "name": "",
          "type": "address"
        }
      ],
      "stateMutability": "view",
      "type": "function"
    },
    {
      "inputs": [
        {
          "internalType": "uint256",
          "name": "",
          "type": "uint256"
        }
      ],
      "name": "matchBets",
      "outputs": [
        {
          "internalType": "uint256",
          "name": "totalHomeWin",
          "type": "uint256"
        },
        {
          "internalType": "uint256",
          "name": "totalAwayWin",
          "type": "uint256"
        },
        {
          "internalType": "uint256",
          "name": "totalDraw",
          "type": "uint256"
        },
        {
          "internalType": "bool",
          "name": "isPaidOut",
          "type": "bool"
        }
      ],
      "stateMutability": "view",
      "type": "function"
    },
    {
      "inputs": [],
      "name": "oracle",
      "outputs": [
        {
          "internalType": "address",
          "name": "",
          "type": "address"
        }
      ],
      "stateMutability": "view",
      "type": "function"
    },
    {
      "inputs": [
        {
          "internalType": "uint256",
          "name": "matchIndex",
          "type": "uint256"
        },
        {
          "internalType": "enum BetContract.Prediction",
          "name": "_prediction",
          "type": "uint8"
        }
      ],
      "name": "placeBet",
      "outputs": [],
      "stateMutability": "payable",
      "type": "function"
    },
    {
      "inputs": [
        {
          "internalType": "address",
          "name": "_commissionAddress",
          "type": "address"
        }
      ],
      "name": "setCommissionAddress",
      "outputs": [],
      "stateMutability": "nonpayable",
      "type": "function"
    }
  ],
  "bytecode": "0x608060405234801561001057600080fd5b50604051611a2e380380611a2e8339818101604052810190610032919061015e565b816000806101000a81548173ffffffffffffffffffffffffffffffffffffffff021916908373ffffffffffffffffffffffffffffffffffffffff16021790555033600160006101000a81548173ffffffffffffffffffffffffffffffffffffffff021916908373ffffffffffffffffffffffffffffffffffffffff16021790555080600260006101000a81548173ffffffffffffffffffffffffffffffffffffffff021916908373ffffffffffffffffffffffffffffffffffffffff160217905550505061019e565b600080fd5b600073ffffffffffffffffffffffffffffffffffffffff82169050919050565b600061012b82610100565b9050919050565b61013b81610120565b811461014657600080fd5b50565b60008151905061015881610132565b92915050565b60008060408385031215610175576101746100fb565b5b600061018385828601610149565b925050602061019485828601610149565b9150509250929050565b611881806101ad6000396000f3fe6080604052600436106100705760003560e01c806359974e381161004e57806359974e38146100e55780635f93b6441461010e5780637dc0d1d01461014e578063931742d31461017957610070565b806303edf9141461007557806340fff80c146100915780634939ab55146100ba575b600080fd5b61008f600480360381019061008a9190610d0b565b6101a4565b005b34801561009d57600080fd5b506100b860048036038101906100b39190610da9565b6105a3565b005b3480156100c657600080fd5b506100cf610677565b6040516100dc9190610e35565b60405180910390f35b3480156100f157600080fd5b5061010c60048036038101906101079190610e50565b61069b565b005b34801561011a57600080fd5b5061013560048036038101906101309190610e50565b610c13565b6040516101459493929190610ea7565b60405180910390f35b34801561015a57600080fd5b50610163610c50565b6040516101709190610efb565b60405180910390f35b34801561018557600080fd5b5061018e610c76565b60405161019b9190610efb565b60405180910390f35b600034116101e7576040517f08c379a00000000000000000000000000000000000000000000000000000000081526004016101de90610f99565b60405180910390fd5b60008060009054906101000a900473ffffffffffffffffffffffffffffffffffffffff1673ffffffffffffffffffffffffffffffffffffffff16632c70120e6040518163ffffffff1660e01b8152600401600060405180830381865afa158015610255573d6000803e3d6000fd5b505050506040513d6000823e3d601f19601f8201168201806040525081019061027e919061132b565b9050805183106102c3576040517f08c379a00000000000000000000000000000000000000000000000000000000081526004016102ba906113c0565b60405180910390fd5b8083815181106102d6576102d56113e0565b5b60200260200101516060015115610322576040517f08c379a00000000000000000000000000000000000000000000000000000000081526004016103199061145b565b60405180910390fd5b600060036000858152602001908152602001600020905060008160030160003373ffffffffffffffffffffffffffffffffffffffff1673ffffffffffffffffffffffffffffffffffffffff168152602001908152602001600020905060008160000154146103c5576040517f08c379a00000000000000000000000000000000000000000000000000000000081526004016103bc906114c7565b60405180910390fd5b348160000181905550838160010160006101000a81548160ff021916908360028111156103f5576103f46114e7565b5b021790555081600401339080600181540180825580915050600190039060005260206000200160009091909190916101000a81548173ffffffffffffffffffffffffffffffffffffffff021916908373ffffffffffffffffffffffffffffffffffffffff16021790555060006002811115610473576104726114e7565b5b846002811115610486576104856114e7565b5b036104ab573482600001600082825461049f9190611545565b92505081905550610514565b600160028111156104bf576104be6114e7565b5b8460028111156104d2576104d16114e7565b5b036104f757348260010160008282546104eb9190611545565b92505081905550610513565b3482600201600082825461050b9190611545565b925050819055505b5b60006103e86001346105269190611579565b61053091906115ea565b9050600260009054906101000a900473ffffffffffffffffffffffffffffffffffffffff1673ffffffffffffffffffffffffffffffffffffffff166108fc829081150290604051600060405180830381858888f1935050505015801561059a573d6000803e3d6000fd5b50505050505050565b600160009054906101000a900473ffffffffffffffffffffffffffffffffffffffff1673ffffffffffffffffffffffffffffffffffffffff163373ffffffffffffffffffffffffffffffffffffffff1614610633576040517f08c379a000000000000000000000000000000000000000000000000000000000815260040161062a9061168d565b60405180910390fd5b80600260006101000a81548173ffffffffffffffffffffffffffffffffffffffff021916908373ffffffffffffffffffffffffffffffffffffffff16021790555050565b60008054906101000a900473ffffffffffffffffffffffffffffffffffffffff1681565b600160009054906101000a900473ffffffffffffffffffffffffffffffffffffffff1673ffffffffffffffffffffffffffffffffffffffff163373ffffffffffffffffffffffffffffffffffffffff161461072b576040517f08c379a00000000000000000000000000000000000000000000000000000000081526004016107229061168d565b60405180910390fd5b60008060009054906101000a900473ffffffffffffffffffffffffffffffffffffffff1673ffffffffffffffffffffffffffffffffffffffff16632c70120e6040518163ffffffff1660e01b8152600401600060405180830381865afa158015610799573d6000803e3d6000fd5b505050506040513d6000823e3d601f19601f820116820180604052508101906107c2919061132b565b905080518210610807576040517f08c379a00000000000000000000000000000000000000000000000000000000081526004016107fe906113c0565b60405180910390fd5b80828151811061081a576108196113e0565b5b602002602001015160600151610865576040517f08c379a000000000000000000000000000000000000000000000000000000000815260040161085c906116f9565b60405180910390fd5b60006003600084815260200190815260200160002090508060050160009054906101000a900460ff16156108ce576040517f08c379a00000000000000000000000000000000000000000000000000000000081526004016108c590611765565b60405180910390fd5b60008284815181106108e3576108e26113e0565b5b602002602001015160400151905060006040518060400160405280600781526020017f486f6d6557696e0000000000000000000000000000000000000000000000000081525080519060200120828051906020012003610946576000905061099f565b6040518060400160405280600781526020017f4177617957696e0000000000000000000000000000000000000000000000000081525080519060200120828051906020012003610999576001905061099e565b600290505b5b60008060028111156109b4576109b36114e7565b5b8260028111156109c7576109c66114e7565b5b036109d85783600001549050610a19565b600160028111156109ec576109eb6114e7565b5b8260028111156109ff576109fe6114e7565b5b03610a105783600101549050610a18565b836002015490505b5b60008111610a5c576040517f08c379a0000000000000000000000000000000000000000000000000000000008152600401610a53906117f7565b60405180910390fd5b6000846002015485600101548660000154610a779190611545565b610a819190611545565b905060005b8560040180549050811015610bec576000866004018281548110610aad57610aac6113e0565b5b9060005260206000200160009054906101000a900473ffffffffffffffffffffffffffffffffffffffff16905060008760030160008373ffffffffffffffffffffffffffffffffffffffff1673ffffffffffffffffffffffffffffffffffffffff1681526020019081526020016000209050856002811115610b3257610b316114e7565b5b8160010160009054906101000a900460ff166002811115610b5657610b556114e7565b5b03610bdd576000858686610b6a9190611817565b8360000154610b799190611579565b610b8391906115ea565b8260000154610b929190611545565b90508273ffffffffffffffffffffffffffffffffffffffff166108fc829081150290604051600060405180830381858888f19350505050158015610bda573d6000803e3d6000fd5b50505b50508080600101915050610a86565b5060018560050160006101000a81548160ff02191690831515021790555050505050505050565b60036020528060005260406000206000915090508060000154908060010154908060020154908060050160009054906101000a900460ff16905084565b600160009054906101000a900473ffffffffffffffffffffffffffffffffffffffff1681565b600260009054906101000a900473ffffffffffffffffffffffffffffffffffffffff1681565b6000604051905090565b600080fd5b600080fd5b6000819050919050565b610cc381610cb0565b8114610cce57600080fd5b50565b600081359050610ce081610cba565b92915050565b60038110610cf357600080fd5b50565b600081359050610d0581610ce6565b92915050565b60008060408385031215610d2257610d21610ca6565b5b6000610d3085828601610cd1565b9250506020610d4185828601610cf6565b9150509250929050565b600073ffffffffffffffffffffffffffffffffffffffff82169050919050565b6000610d7682610d4b565b9050919050565b610d8681610d6b565b8114610d9157600080fd5b50565b600081359050610da381610d7d565b92915050565b600060208284031215610dbf57610dbe610ca6565b5b6000610dcd84828501610d94565b91505092915050565b6000819050919050565b6000610dfb610df6610df184610d4b565b610dd6565b610d4b565b9050919050565b6000610e0d82610de0565b9050919050565b6000610e1f82610e02565b9050919050565b610e2f81610e14565b82525050565b6000602082019050610e4a6000830184610e26565b92915050565b600060208284031215610e6657610e65610ca6565b5b6000610e7484828501610cd1565b91505092915050565b610e8681610cb0565b82525050565b60008115159050919050565b610ea181610e8c565b82525050565b6000608082019050610ebc6000830187610e7d565b610ec96020830186610e7d565b610ed66040830185610e7d565b610ee36060830184610e98565b95945050505050565b610ef581610d6b565b82525050565b6000602082019050610f106000830184610eec565b92915050565b600082825260208201905092915050565b7f42657420616d6f756e74206d7573742062652067726561746572207468616e2060008201527f7a65726f2e000000000000000000000000000000000000000000000000000000602082015250565b6000610f83602583610f16565b9150610f8e82610f27565b604082019050919050565b60006020820190508181036000830152610fb281610f76565b9050919050565b600080fd5b6000601f19601f8301169050919050565b7f4e487b7100000000000000000000000000000000000000000000000000000000600052604160045260246000fd5b61100782610fbe565b810181811067ffffffffffffffff8211171561102657611025610fcf565b5b80604052505050565b6000611039610c9c565b90506110458282610ffe565b919050565b600067ffffffffffffffff82111561106557611064610fcf565b5b602082029050602081019050919050565b600080fd5b600080fd5b600080fd5b600080fd5b600067ffffffffffffffff8211156110a5576110a4610fcf565b5b6110ae82610fbe565b9050602081019050919050565b60005b838110156110d95780820151818401526020810190506110be565b60008484015250505050565b60006110f86110f38461108a565b61102f565b90508281526020810184848401111561111457611113611085565b5b61111f8482856110bb565b509392505050565b600082601f83011261113c5761113b610fb9565b5b815161114c8482602086016110e5565b91505092915050565b61115e81610e8c565b811461116957600080fd5b50565b60008151905061117b81611155565b92915050565b60008151905061119081610cba565b92915050565b600060a082840312156111ac576111ab61107b565b5b6111b660a061102f565b9050600082015167ffffffffffffffff8111156111d6576111d5611080565b5b6111e284828501611127565b600083015250602082015167ffffffffffffffff81111561120657611205611080565b5b61121284828501611127565b602083015250604082015167ffffffffffffffff81111561123657611235611080565b5b61124284828501611127565b60408301525060606112568482850161116c565b606083015250608061126a84828501611181565b60808301525092915050565b60006112896112848461104a565b61102f565b905080838252602082019050602084028301858111156112ac576112ab611076565b5b835b818110156112f357805167ffffffffffffffff8111156112d1576112d0610fb9565b5b8086016112de8982611196565b855260208501945050506020810190506112ae565b5050509392505050565b600082601f83011261131257611311610fb9565b5b8151611322848260208601611276565b91505092915050565b60006020828403121561134157611340610ca6565b5b600082015167ffffffffffffffff81111561135f5761135e610cab565b5b61136b848285016112fd565b91505092915050565b7f496e76616c6964206d6174636820696e6465782e000000000000000000000000600082015250565b60006113aa601483610f16565b91506113b582611374565b602082019050919050565b600060208201905081810360008301526113d98161139d565b9050919050565b7f4e487b7100000000000000000000000000000000000000000000000000000000600052603260045260246000fd5b7f4d6174636820616c72656164792066696e69736865642e000000000000000000600082015250565b6000611445601783610f16565b91506114508261140f565b602082019050919050565b6000602082019050818103600083015261147481611438565b9050919050565b7f596f75206861766520616c726561647920706c616365642061206265742e0000600082015250565b60006114b1601e83610f16565b91506114bc8261147b565b602082019050919050565b600060208201905081810360008301526114e0816114a4565b9050919050565b7f4e487b7100000000000000000000000000000000000000000000000000000000600052602160045260246000fd5b7f4e487b7100000000000000000000000000000000000000000000000000000000600052601160045260246000fd5b600061155082610cb0565b915061155b83610cb0565b925082820190508082111561157357611572611516565b5b92915050565b600061158482610cb0565b915061158f83610cb0565b925082820261159d81610cb0565b915082820484148315176115b4576115b3611516565b5b5092915050565b7f4e487b7100000000000000000000000000000000000000000000000000000000600052601260045260246000fd5b60006115f582610cb0565b915061160083610cb0565b9250826116105761160f6115bb565b5b828204905092915050565b7f4f6e6c79206f7261636c652063616e20706572666f726d20746869732061637460008201527f696f6e0000000000000000000000000000000000000000000000000000000000602082015250565b6000611677602383610f16565b91506116828261161b565b604082019050919050565b600060208201905081810360008301526116a68161166a565b9050919050565b7f4d61746368206973206e6f742066696e69736865642e00000000000000000000600082015250565b60006116e3601683610f16565b91506116ee826116ad565b602082019050919050565b60006020820190508181036000830152611712816116d6565b9050919050565b7f5265776172647320616c72656164792064697374726962757465642e00000000600082015250565b600061174f601c83610f16565b915061175a82611719565b602082019050919050565b6000602082019050818103600083015261177e81611742565b9050919050565b7f4e6f206265747320706c61636564206f6e2077696e6e696e67206f7574636f6d60008201527f652e000000000000000000000000000000000000000000000000000000000000602082015250565b60006117e1602283610f16565b91506117ec82611785565b604082019050919050565b60006020820190508181036000830152611810816117d4565b9050919050565b600061182282610cb0565b915061182d83610cb0565b925082820390508181111561184557611844611516565b5b9291505056fea264697066735822122003555ac575d49ec505b24df3876e45437c307ba776dadc331d3390993ebccde764736f6c634300081a0033",
  "linkReferences": {},
  "deployedLinkReferences": {}
}