{
  "_format": "hh-sol-artifact-1",
  "contractName": "FootballData",
  "sourceName": "contracts/FootballData.sol",
  "abi": [
    {
      "inputs": [
        {
          "internalType": "uint256",
          "name": "matchId",
          "type": "uint256"
        },
        {
          "internalType": "string",
          "name": "homeTeam",
          "type": "string"
        },
        {
          "internalType": "string",
          "name": "awayTeam",
          "type": "string"
        },
        {
          "internalType": "uint256",
          "name": "endTime",
          "type": "uint256"
        }
      ],
      "name": "addMatch",
      "outputs": [],
      "stateMutability": "nonpayable",
      "type": "function"
    },
    {
      "inputs": [],
      "name": "getMatches",
      "outputs": [
        {
          "components": [
            {
              "internalType": "uint256",
              "name": "matchId",
              "type": "uint256"
            },
            {
              "internalType": "string",
              "name": "homeTeam",
              "type": "string"
            },
            {
              "internalType": "string",
              "name": "awayTeam",
              "type": "string"
            },
            {
              "internalType": "string",
              "name": "score",
              "type": "string"
            },
            {
              "internalType": "bool",
              "name": "isFinished",
              "type": "bool"
            },
            {
              "internalType": "uint256",
              "name": "endTime",
              "type": "uint256"
            }
          ],
          "internalType": "struct FootballData.Match[]",
          "name": "",
          "type": "tuple[]"
        }
      ],
      "stateMutability": "view",
      "type": "function"
    },
    {
      "inputs": [
        {
          "internalType": "uint256",
          "name": "",
          "type": "uint256"
        }
      ],
      "name": "matches",
      "outputs": [
        {
          "internalType": "uint256",
          "name": "matchId",
          "type": "uint256"
        },
        {
          "internalType": "string",
          "name": "homeTeam",
          "type": "string"
        },
        {
          "internalType": "string",
          "name": "awayTeam",
          "type": "string"
        },
        {
          "internalType": "string",
          "name": "score",
          "type": "string"
        },
        {
          "internalType": "bool",
          "name": "isFinished",
          "type": "bool"
        },
        {
          "internalType": "uint256",
          "name": "endTime",
          "type": "uint256"
        }
      ],
      "stateMutability": "view",
      "type": "function"
    },
    {
      "inputs": [
        {
          "internalType": "uint256",
          "name": "index",
          "type": "uint256"
        },
        {
          "internalType": "string",
          "name": "newScore",
          "type": "string"
        }
      ],
      "name": "updateScore",
      "outputs": [],
      "stateMutability": "nonpayable",
      "type": "function"
    }
  ],
  "bytecode": "0x6080604052348015600f57600080fd5b506110e58061001f6000396000f3fe608060405234801561001057600080fd5b506004361061004c5760003560e01c80632c70120e146100515780634768d4ef1461006f578063501b96d9146100a4578063d179277d146100c0575b600080fd5b6100596100dc565b604051610066919061092d565b60405180910390f35b6100896004803603810190610084919061098f565b610320565b60405161009b96959493929190610a24565b60405180910390f35b6100be60048036038101906100b99190610bcf565b610511565b005b6100da60048036038101906100d59190610c6e565b61061f565b005b60606000805480602002602001604051908101604052809291908181526020016000905b8282101561031757838290600052602060002090600602016040518060c00160405290816000820154815260200160018201805461013d90610cf9565b80601f016020809104026020016040519081016040528092919081815260200182805461016990610cf9565b80156101b65780601f1061018b576101008083540402835291602001916101b6565b820191906000526020600020905b81548152906001019060200180831161019957829003601f168201915b505050505081526020016002820180546101cf90610cf9565b80601f01602080910402602001604051908101604052809291908181526020018280546101fb90610cf9565b80156102485780601f1061021d57610100808354040283529160200191610248565b820191906000526020600020905b81548152906001019060200180831161022b57829003601f168201915b5050505050815260200160038201805461026190610cf9565b80601f016020809104026020016040519081016040528092919081815260200182805461028d90610cf9565b80156102da5780601f106102af576101008083540402835291602001916102da565b820191906000526020600020905b8154815290600101906020018083116102bd57829003601f168201915b505050505081526020016004820160009054906101000a900460ff1615151515815260200160058201548152505081526020019060010190610100565b50505050905090565b6000818154811061033057600080fd5b906000526020600020906006020160009150905080600001549080600101805461035990610cf9565b80601f016020809104026020016040519081016040528092919081815260200182805461038590610cf9565b80156103d25780601f106103a7576101008083540402835291602001916103d2565b820191906000526020600020905b8154815290600101906020018083116103b557829003601f168201915b5050505050908060020180546103e790610cf9565b80601f016020809104026020016040519081016040528092919081815260200182805461041390610cf9565b80156104605780601f1061043557610100808354040283529160200191610460565b820191906000526020600020905b81548152906001019060200180831161044357829003601f168201915b50505050509080600301805461047590610cf9565b80601f01602080910402602001604051908101604052809291908181526020018280546104a190610cf9565b80156104ee5780601f106104c3576101008083540402835291602001916104ee565b820191906000526020600020905b8154815290600101906020018083116104d157829003601f168201915b5050505050908060040160009054906101000a900460ff16908060050154905086565b60006040518060c001604052808681526020018581526020018481526020016040518060400160405280600381526020017f302d30000000000000000000000000000000000000000000000000000000000081525081526020016000151581526020018381525090806001815401808255809150506001900390600052602060002090600602016000909190919091506000820151816000015560208201518160010190816105c09190610ed6565b5060408201518160020190816105d69190610ed6565b5060608201518160030190816105ec9190610ed6565b5060808201518160040160006101000a81548160ff02191690831515021790555060a08201518160050155505050505050565b6000805490508210610666576040517f08c379a000000000000000000000000000000000000000000000000000000000815260040161065d90610ff4565b60405180910390fd5b6000828154811061067a57610679611014565b5b906000526020600020906006020160040160009054906101000a900460ff16156106d9576040517f08c379a00000000000000000000000000000000000000000000000000000000081526004016106d09061108f565b60405180910390fd5b80600083815481106106ee576106ed611014565b5b9060005260206000209060060201600301908161070b9190610ed6565b505050565b600081519050919050565b600082825260208201905092915050565b6000819050602082019050919050565b6000819050919050565b61074f8161073c565b82525050565b600081519050919050565b600082825260208201905092915050565b60005b8381101561078f578082015181840152602081019050610774565b60008484015250505050565b6000601f19601f8301169050919050565b60006107b782610755565b6107c18185610760565b93506107d1818560208601610771565b6107da8161079b565b840191505092915050565b60008115159050919050565b6107fa816107e5565b82525050565b600060c0830160008301516108186000860182610746565b506020830151848203602086015261083082826107ac565b9150506040830151848203604086015261084a82826107ac565b9150506060830151848203606086015261086482826107ac565b915050608083015161087960808601826107f1565b5060a083015161088c60a0860182610746565b508091505092915050565b60006108a38383610800565b905092915050565b6000602082019050919050565b60006108c382610710565b6108cd818561071b565b9350836020820285016108df8561072c565b8060005b8581101561091b57848403895281516108fc8582610897565b9450610907836108ab565b925060208a019950506001810190506108e3565b50829750879550505050505092915050565b6000602082019050818103600083015261094781846108b8565b905092915050565b6000604051905090565b600080fd5b600080fd5b61096c8161073c565b811461097757600080fd5b50565b60008135905061098981610963565b92915050565b6000602082840312156109a5576109a4610959565b5b60006109b38482850161097a565b91505092915050565b6109c58161073c565b82525050565b600082825260208201905092915050565b60006109e782610755565b6109f181856109cb565b9350610a01818560208601610771565b610a0a8161079b565b840191505092915050565b610a1e816107e5565b82525050565b600060c082019050610a3960008301896109bc565b8181036020830152610a4b81886109dc565b90508181036040830152610a5f81876109dc565b90508181036060830152610a7381866109dc565b9050610a826080830185610a15565b610a8f60a08301846109bc565b979650505050505050565b600080fd5b600080fd5b7f4e487b7100000000000000000000000000000000000000000000000000000000600052604160045260246000fd5b610adc8261079b565b810181811067ffffffffffffffff82111715610afb57610afa610aa4565b5b80604052505050565b6000610b0e61094f565b9050610b1a8282610ad3565b919050565b600067ffffffffffffffff821115610b3a57610b39610aa4565b5b610b438261079b565b9050602081019050919050565b82818337600083830152505050565b6000610b72610b6d84610b1f565b610b04565b905082815260208101848484011115610b8e57610b8d610a9f565b5b610b99848285610b50565b509392505050565b600082601f830112610bb657610bb5610a9a565b5b8135610bc6848260208601610b5f565b91505092915050565b60008060008060808587031215610be957610be8610959565b5b6000610bf78782880161097a565b945050602085013567ffffffffffffffff811115610c1857610c1761095e565b5b610c2487828801610ba1565b935050604085013567ffffffffffffffff811115610c4557610c4461095e565b5b610c5187828801610ba1565b9250506060610c628782880161097a565b91505092959194509250565b60008060408385031215610c8557610c84610959565b5b6000610c938582860161097a565b925050602083013567ffffffffffffffff811115610cb457610cb361095e565b5b610cc085828601610ba1565b9150509250929050565b7f4e487b7100000000000000000000000000000000000000000000000000000000600052602260045260246000fd5b60006002820490506001821680610d1157607f821691505b602082108103610d2457610d23610cca565b5b50919050565b60008190508160005260206000209050919050565b60006020601f8301049050919050565b600082821b905092915050565b600060088302610d8c7fffffffffffffffffffffffffffffffffffffffffffffffffffffffffffffffff82610d4f565b610d968683610d4f565b95508019841693508086168417925050509392505050565b6000819050919050565b6000610dd3610dce610dc98461073c565b610dae565b61073c565b9050919050565b6000819050919050565b610ded83610db8565b610e01610df982610dda565b848454610d5c565b825550505050565b600090565b610e16610e09565b610e21818484610de4565b505050565b5b81811015610e4557610e3a600082610e0e565b600181019050610e27565b5050565b601f821115610e8a57610e5b81610d2a565b610e6484610d3f565b81016020851015610e73578190505b610e87610e7f85610d3f565b830182610e26565b50505b505050565b600082821c905092915050565b6000610ead60001984600802610e8f565b1980831691505092915050565b6000610ec68383610e9c565b9150826002028217905092915050565b610edf82610755565b67ffffffffffffffff811115610ef857610ef7610aa4565b5b610f028254610cf9565b610f0d828285610e49565b600060209050601f831160018114610f405760008415610f2e578287015190505b610f388582610eba565b865550610fa0565b601f198416610f4e86610d2a565b60005b82811015610f7657848901518255600182019150602085019450602081019050610f51565b86831015610f935784890151610f8f601f891682610e9c565b8355505b6001600288020188555050505b505050505050565b7f4d6174636820646f6573206e6f74206578697374000000000000000000000000600082015250565b6000610fde6014836109cb565b9150610fe982610fa8565b602082019050919050565b6000602082019050818103600083015261100d81610fd1565b9050919050565b7f4e487b7100000000000000000000000000000000000000000000000000000000600052603260045260246000fd5b7f4d6174636820697320616c72656164792066696e697368656400000000000000600082015250565b60006110796019836109cb565b915061108482611043565b602082019050919050565b600060208201905081810360008301526110a88161106c565b905091905056fea2646970667358221220a58039e9988d4cd8ad883f3e980d48edb58e6a5a312d0a673097950d8f9537d264736f6c634300081b0033",
  "linkReferences": {},
  "deployedLinkReferences": {}
}