{
  "_format": "hh-sol-artifact-1",
  "contractName": "FootballData",
  "sourceName": "contracts/FootballData.sol",
  "abi": [
    {
      "inputs": [
        {
          "internalType": "address",
          "name": "_oracle",
          "type": "address"
        }
      ],
      "stateMutability": "nonpayable",
      "type": "constructor"
    },
    {
      "inputs": [
        {
          "internalType": "string",
          "name": "homeTeam",
          "type": "string"
        },
        {
          "internalType": "string",
          "name": "awayTeam",
          "type": "string"
        },
        {
          "internalType": "string",
          "name": "score",
          "type": "string"
        },
        {
          "internalType": "uint256",
          "name": "endTime",
          "type": "uint256"
        }
      ],
      "name": "addMatch",
      "outputs": [],
      "stateMutability": "nonpayable",
      "type": "function"
    },
    {
      "inputs": [
        {
          "internalType": "uint256",
          "name": "index",
          "type": "uint256"
        }
      ],
      "name": "finishMatches",
      "outputs": [],
      "stateMutability": "nonpayable",
      "type": "function"
    },
    {
      "inputs": [],
      "name": "getMatches",
      "outputs": [
        {
          "components": [
            {
              "internalType": "string",
              "name": "homeTeam",
              "type": "string"
            },
            {
              "internalType": "string",
              "name": "awayTeam",
              "type": "string"
            },
            {
              "internalType": "string",
              "name": "score",
              "type": "string"
            },
            {
              "internalType": "bool",
              "name": "isFinished",
              "type": "bool"
            },
            {
              "internalType": "uint256",
              "name": "endTime",
              "type": "uint256"
            }
          ],
          "internalType": "struct IFootballData.Match[]",
          "name": "",
          "type": "tuple[]"
        }
      ],
      "stateMutability": "view",
      "type": "function"
    },
    {
      "inputs": [
        {
          "internalType": "uint256",
          "name": "",
          "type": "uint256"
        }
      ],
      "name": "matches",
      "outputs": [
        {
          "internalType": "string",
          "name": "homeTeam",
          "type": "string"
        },
        {
          "internalType": "string",
          "name": "awayTeam",
          "type": "string"
        },
        {
          "internalType": "string",
          "name": "score",
          "type": "string"
        },
        {
          "internalType": "bool",
          "name": "isFinished",
          "type": "bool"
        },
        {
          "internalType": "uint256",
          "name": "endTime",
          "type": "uint256"
        }
      ],
      "stateMutability": "view",
      "type": "function"
    },
    {
      "inputs": [],
      "name": "oracle",
      "outputs": [
        {
          "internalType": "address",
          "name": "",
          "type": "address"
        }
      ],
      "stateMutability": "view",
      "type": "function"
    },
    {
      "inputs": [
        {
          "internalType": "uint256",
          "name": "index",
          "type": "uint256"
        },
        {
          "internalType": "string",
          "name": "newScore",
          "type": "string"
        }
      ],
      "name": "updateScore",
      "outputs": [],
      "stateMutability": "nonpayable",
      "type": "function"
    }
  ],
  "bytecode": "0x608060405234801561001057600080fd5b5060405161153e38038061153e833981810160405281019061003291906100dc565b80600160006101000a81548173ffffffffffffffffffffffffffffffffffffffff021916908373ffffffffffffffffffffffffffffffffffffffff16021790555050610109565b600080fd5b600073ffffffffffffffffffffffffffffffffffffffff82169050919050565b60006100a98261007e565b9050919050565b6100b98161009e565b81146100c457600080fd5b50565b6000815190506100d6816100b0565b92915050565b6000602082840312156100f2576100f1610079565b5b6000610100848285016100c7565b91505092915050565b611426806101186000396000f3fe608060405234801561001057600080fd5b50600436106100625760003560e01c80632c70120e146100675780634768d4ef146100855780637dc0d1d0146100b95780638a2954fd146100d7578063934965bb146100f3578063d179277d1461010f575b600080fd5b61006f61012b565b60405161007c9190610b72565b60405180910390f35b61009f600480360381019061009a9190610bd4565b610365565b6040516100b0959493929190610c69565b60405180910390f35b6100c1610550565b6040516100ce9190610d12565b60405180910390f35b6100f160048036038101906100ec9190610bd4565b610576565b005b61010d60048036038101906101089190610e62565b61068e565b005b61012960048036038101906101249190610f1d565b6107e7565b005b60606000805480602002602001604051908101604052809291908181526020016000905b8282101561035c57838290600052602060002090600502016040518060a001604052908160008201805461018290610fa8565b80601f01602080910402602001604051908101604052809291908181526020018280546101ae90610fa8565b80156101fb5780601f106101d0576101008083540402835291602001916101fb565b820191906000526020600020905b8154815290600101906020018083116101de57829003601f168201915b5050505050815260200160018201805461021490610fa8565b80601f016020809104026020016040519081016040528092919081815260200182805461024090610fa8565b801561028d5780601f106102625761010080835404028352916020019161028d565b820191906000526020600020905b81548152906001019060200180831161027057829003601f168201915b505050505081526020016002820180546102a690610fa8565b80601f01602080910402602001604051908101604052809291908181526020018280546102d290610fa8565b801561031f5780601f106102f45761010080835404028352916020019161031f565b820191906000526020600020905b81548152906001019060200180831161030257829003601f168201915b505050505081526020016003820160009054906101000a900460ff161515151581526020016004820154815250508152602001906001019061014f565b50505050905090565b6000818154811061037557600080fd5b906000526020600020906005020160009150905080600001805461039890610fa8565b80601f01602080910402602001604051908101604052809291908181526020018280546103c490610fa8565b80156104115780601f106103e657610100808354040283529160200191610411565b820191906000526020600020905b8154815290600101906020018083116103f457829003601f168201915b50505050509080600101805461042690610fa8565b80601f016020809104026020016040519081016040528092919081815260200182805461045290610fa8565b801561049f5780601f106104745761010080835404028352916020019161049f565b820191906000526020600020905b81548152906001019060200180831161048257829003601f168201915b5050505050908060020180546104b490610fa8565b80601f01602080910402602001604051908101604052809291908181526020018280546104e090610fa8565b801561052d5780601f106105025761010080835404028352916020019161052d565b820191906000526020600020905b81548152906001019060200180831161051057829003601f168201915b5050505050908060030160009054906101000a900460ff16908060040154905085565b600160009054906101000a900473ffffffffffffffffffffffffffffffffffffffff1681565b600160009054906101000a900473ffffffffffffffffffffffffffffffffffffffff1673ffffffffffffffffffffffffffffffffffffffff163373ffffffffffffffffffffffffffffffffffffffff1614610606576040517f08c379a00000000000000000000000000000000000000000000000000000000081526004016105fd9061104b565b60405180910390fd5b600080549050811061064d576040517f08c379a0000000000000000000000000000000000000000000000000000000008152600401610644906110b7565b60405180910390fd5b600160008281548110610663576106626110d7565b5b906000526020600020906005020160030160006101000a81548160ff02191690831515021790555050565b600160009054906101000a900473ffffffffffffffffffffffffffffffffffffffff1673ffffffffffffffffffffffffffffffffffffffff163373ffffffffffffffffffffffffffffffffffffffff161461071e576040517f08c379a00000000000000000000000000000000000000000000000000000000081526004016107159061104b565b60405180910390fd5b60006040518060a00160405280868152602001858152602001848152602001600015158152602001838152509080600181540180825580915050600190039060005260206000209060050201600090919091909150600082015181600001908161078891906112b2565b50602082015181600101908161079e91906112b2565b5060408201518160020190816107b491906112b2565b5060608201518160030160006101000a81548160ff02191690831515021790555060808201518160040155505050505050565b600160009054906101000a900473ffffffffffffffffffffffffffffffffffffffff1673ffffffffffffffffffffffffffffffffffffffff163373ffffffffffffffffffffffffffffffffffffffff1614610877576040517f08c379a000000000000000000000000000000000000000000000000000000000815260040161086e9061104b565b60405180910390fd5b60008054905082106108be576040517f08c379a00000000000000000000000000000000000000000000000000000000081526004016108b5906110b7565b60405180910390fd5b600082815481106108d2576108d16110d7565b5b906000526020600020906005020160030160009054906101000a900460ff1615610931576040517f08c379a0000000000000000000000000000000000000000000000000000000008152600401610928906113d0565b60405180910390fd5b8060008381548110610946576109456110d7565b5b9060005260206000209060050201600201908161096391906112b2565b505050565b600081519050919050565b600082825260208201905092915050565b6000819050602082019050919050565b600081519050919050565b600082825260208201905092915050565b60005b838110156109ce5780820151818401526020810190506109b3565b60008484015250505050565b6000601f19601f8301169050919050565b60006109f682610994565b610a00818561099f565b9350610a108185602086016109b0565b610a19816109da565b840191505092915050565b60008115159050919050565b610a3981610a24565b82525050565b6000819050919050565b610a5281610a3f565b82525050565b600060a0830160008301518482036000860152610a7582826109eb565b91505060208301518482036020860152610a8f82826109eb565b91505060408301518482036040860152610aa982826109eb565b9150506060830151610abe6060860182610a30565b506080830151610ad16080860182610a49565b508091505092915050565b6000610ae88383610a58565b905092915050565b6000602082019050919050565b6000610b0882610968565b610b128185610973565b935083602082028501610b2485610984565b8060005b85811015610b605784840389528151610b418582610adc565b9450610b4c83610af0565b925060208a01995050600181019050610b28565b50829750879550505050505092915050565b60006020820190508181036000830152610b8c8184610afd565b905092915050565b6000604051905090565b600080fd5b600080fd5b610bb181610a3f565b8114610bbc57600080fd5b50565b600081359050610bce81610ba8565b92915050565b600060208284031215610bea57610be9610b9e565b5b6000610bf884828501610bbf565b91505092915050565b600082825260208201905092915050565b6000610c1d82610994565b610c278185610c01565b9350610c378185602086016109b0565b610c40816109da565b840191505092915050565b610c5481610a24565b82525050565b610c6381610a3f565b82525050565b600060a0820190508181036000830152610c838188610c12565b90508181036020830152610c978187610c12565b90508181036040830152610cab8186610c12565b9050610cba6060830185610c4b565b610cc76080830184610c5a565b9695505050505050565b600073ffffffffffffffffffffffffffffffffffffffff82169050919050565b6000610cfc82610cd1565b9050919050565b610d0c81610cf1565b82525050565b6000602082019050610d276000830184610d03565b92915050565b600080fd5b600080fd5b7f4e487b7100000000000000000000000000000000000000000000000000000000600052604160045260246000fd5b610d6f826109da565b810181811067ffffffffffffffff82111715610d8e57610d8d610d37565b5b80604052505050565b6000610da1610b94565b9050610dad8282610d66565b919050565b600067ffffffffffffffff821115610dcd57610dcc610d37565b5b610dd6826109da565b9050602081019050919050565b82818337600083830152505050565b6000610e05610e0084610db2565b610d97565b905082815260208101848484011115610e2157610e20610d32565b5b610e2c848285610de3565b509392505050565b600082601f830112610e4957610e48610d2d565b5b8135610e59848260208601610df2565b91505092915050565b60008060008060808587031215610e7c57610e7b610b9e565b5b600085013567ffffffffffffffff811115610e9a57610e99610ba3565b5b610ea687828801610e34565b945050602085013567ffffffffffffffff811115610ec757610ec6610ba3565b5b610ed387828801610e34565b935050604085013567ffffffffffffffff811115610ef457610ef3610ba3565b5b610f0087828801610e34565b9250506060610f1187828801610bbf565b91505092959194509250565b60008060408385031215610f3457610f33610b9e565b5b6000610f4285828601610bbf565b925050602083013567ffffffffffffffff811115610f6357610f62610ba3565b5b610f6f85828601610e34565b9150509250929050565b7f4e487b7100000000000000000000000000000000000000000000000000000000600052602260045260246000fd5b60006002820490506001821680610fc057607f821691505b602082108103610fd357610fd2610f79565b5b50919050565b7f4f6e6c79206f7261636c652063616e20706572666f726d20746869732061637460008201527f696f6e0000000000000000000000000000000000000000000000000000000000602082015250565b6000611035602383610c01565b915061104082610fd9565b604082019050919050565b6000602082019050818103600083015261106481611028565b9050919050565b7f4d6174636820646f6573206e6f74206578697374000000000000000000000000600082015250565b60006110a1601483610c01565b91506110ac8261106b565b602082019050919050565b600060208201905081810360008301526110d081611094565b9050919050565b7f4e487b7100000000000000000000000000000000000000000000000000000000600052603260045260246000fd5b60008190508160005260206000209050919050565b60006020601f8301049050919050565b600082821b905092915050565b6000600883026111687fffffffffffffffffffffffffffffffffffffffffffffffffffffffffffffffff8261112b565b611172868361112b565b95508019841693508086168417925050509392505050565b6000819050919050565b60006111af6111aa6111a584610a3f565b61118a565b610a3f565b9050919050565b6000819050919050565b6111c983611194565b6111dd6111d5826111b6565b848454611138565b825550505050565b600090565b6111f26111e5565b6111fd8184846111c0565b505050565b5b81811015611221576112166000826111ea565b600181019050611203565b5050565b601f8211156112665761123781611106565b6112408461111b565b8101602085101561124f578190505b61126361125b8561111b565b830182611202565b50505b505050565b600082821c905092915050565b60006112896000198460080261126b565b1980831691505092915050565b60006112a28383611278565b9150826002028217905092915050565b6112bb82610994565b67ffffffffffffffff8111156112d4576112d3610d37565b5b6112de8254610fa8565b6112e9828285611225565b600060209050601f83116001811461131c576000841561130a578287015190505b6113148582611296565b86555061137c565b601f19841661132a86611106565b60005b828110156113525784890151825560018201915060208501945060208101905061132d565b8683101561136f578489015161136b601f891682611278565b8355505b6001600288020188555050505b505050505050565b7f4d6174636820697320616c72656164792066696e697368656400000000000000600082015250565b60006113ba601983610c01565b91506113c582611384565b602082019050919050565b600060208201905081810360008301526113e9816113ad565b905091905056fea2646970667358221220562514e0e22b818539d3f923c1132013dbc04b1fd9a7386fba69271d39feac9564736f6c634300081a0033",
  "linkReferences": {},
  "deployedLinkReferences": {}
}