{
  "_format": "hh-sol-artifact-1",
  "contractName": "FootballData",
  "sourceName": "contracts/FootballData.sol",
  "abi": [
    {
      "inputs": [],
      "stateMutability": "nonpayable",
      "type": "constructor"
    },
    {
      "inputs": [
        {
          "internalType": "string",
          "name": "homeTeam",
          "type": "string"
        },
        {
          "internalType": "string",
          "name": "awayTeam",
          "type": "string"
        },
        {
          "internalType": "uint256",
          "name": "endTime",
          "type": "uint256"
        }
      ],
      "name": "addMatch",
      "outputs": [],
      "stateMutability": "nonpayable",
      "type": "function"
    },
    {
      "inputs": [
        {
          "internalType": "uint256",
          "name": "index",
          "type": "uint256"
        }
      ],
      "name": "finishMatches",
      "outputs": [],
      "stateMutability": "nonpayable",
      "type": "function"
    },
    {
      "inputs": [],
      "name": "getMatches",
      "outputs": [
        {
          "components": [
            {
              "internalType": "string",
              "name": "homeTeam",
              "type": "string"
            },
            {
              "internalType": "string",
              "name": "awayTeam",
              "type": "string"
            },
            {
              "internalType": "string",
              "name": "score",
              "type": "string"
            },
            {
              "internalType": "bool",
              "name": "isFinished",
              "type": "bool"
            },
            {
              "internalType": "uint256",
              "name": "endTime",
              "type": "uint256"
            }
          ],
          "internalType": "struct FootballData.Match[]",
          "name": "",
          "type": "tuple[]"
        }
      ],
      "stateMutability": "view",
      "type": "function"
    },
    {
      "inputs": [
        {
          "internalType": "uint256",
          "name": "",
          "type": "uint256"
        }
      ],
      "name": "matches",
      "outputs": [
        {
          "internalType": "string",
          "name": "homeTeam",
          "type": "string"
        },
        {
          "internalType": "string",
          "name": "awayTeam",
          "type": "string"
        },
        {
          "internalType": "string",
          "name": "score",
          "type": "string"
        },
        {
          "internalType": "bool",
          "name": "isFinished",
          "type": "bool"
        },
        {
          "internalType": "uint256",
          "name": "endTime",
          "type": "uint256"
        }
      ],
      "stateMutability": "view",
      "type": "function"
    },
    {
      "inputs": [],
      "name": "oracle",
      "outputs": [
        {
          "internalType": "address",
          "name": "",
          "type": "address"
        }
      ],
      "stateMutability": "view",
      "type": "function"
    },
    {
      "inputs": [
        {
          "internalType": "uint256",
          "name": "index",
          "type": "uint256"
        },
        {
          "internalType": "string",
          "name": "newScore",
          "type": "string"
        }
      ],
      "name": "updateScore",
      "outputs": [],
      "stateMutability": "nonpayable",
      "type": "function"
    }
  ],
  "bytecode": "0x6080604052348015600f57600080fd5b5033600160006101000a81548173ffffffffffffffffffffffffffffffffffffffff021916908373ffffffffffffffffffffffffffffffffffffffff16021790555061149d806100606000396000f3fe608060405234801561001057600080fd5b50600436106100625760003560e01c80632c70120e146100675780634768d4ef146100855780637dc0d1d0146100b95780638a2954fd146100d7578063d179277d146100f3578063fad54f3a1461010f575b600080fd5b61006f61012b565b60405161007c9190610c19565b60405180910390f35b61009f600480360381019061009a9190610c7b565b610365565b6040516100b0959493929190610d10565b60405180910390f35b6100c1610550565b6040516100ce9190610db9565b60405180910390f35b6100f160048036038101906100ec9190610c7b565b610576565b005b61010d60048036038101906101089190610f09565b610701565b005b61012960048036038101906101249190610f65565b610882565b005b60606000805480602002602001604051908101604052809291908181526020016000905b8282101561035c57838290600052602060002090600502016040518060a00160405290816000820180546101829061101f565b80601f01602080910402602001604051908101604052809291908181526020018280546101ae9061101f565b80156101fb5780601f106101d0576101008083540402835291602001916101fb565b820191906000526020600020905b8154815290600101906020018083116101de57829003601f168201915b505050505081526020016001820180546102149061101f565b80601f01602080910402602001604051908101604052809291908181526020018280546102409061101f565b801561028d5780601f106102625761010080835404028352916020019161028d565b820191906000526020600020905b81548152906001019060200180831161027057829003601f168201915b505050505081526020016002820180546102a69061101f565b80601f01602080910402602001604051908101604052809291908181526020018280546102d29061101f565b801561031f5780601f106102f45761010080835404028352916020019161031f565b820191906000526020600020905b81548152906001019060200180831161030257829003601f168201915b505050505081526020016003820160009054906101000a900460ff161515151581526020016004820154815250508152602001906001019061014f565b50505050905090565b6000818154811061037557600080fd5b90600052602060002090600502016000915090508060000180546103989061101f565b80601f01602080910402602001604051908101604052809291908181526020018280546103c49061101f565b80156104115780601f106103e657610100808354040283529160200191610411565b820191906000526020600020905b8154815290600101906020018083116103f457829003601f168201915b5050505050908060010180546104269061101f565b80601f01602080910402602001604051908101604052809291908181526020018280546104529061101f565b801561049f5780601f106104745761010080835404028352916020019161049f565b820191906000526020600020905b81548152906001019060200180831161048257829003601f168201915b5050505050908060020180546104b49061101f565b80601f01602080910402602001604051908101604052809291908181526020018280546104e09061101f565b801561052d5780601f106105025761010080835404028352916020019161052d565b820191906000526020600020905b81548152906001019060200180831161051057829003601f168201915b5050505050908060030160009054906101000a900460ff16908060040154905085565b600160009054906101000a900473ffffffffffffffffffffffffffffffffffffffff1681565b600160009054906101000a900473ffffffffffffffffffffffffffffffffffffffff1673ffffffffffffffffffffffffffffffffffffffff163373ffffffffffffffffffffffffffffffffffffffff1614610606576040517f08c379a00000000000000000000000000000000000000000000000000000000081526004016105fd906110c2565b60405180910390fd5b600080549050811061064d576040517f08c379a00000000000000000000000000000000000000000000000000000000081526004016106449061112e565b60405180910390fd5b600081815481106106615761066061114e565b5b906000526020600020906005020160030160009054906101000a900460ff16156106c0576040517f08c379a00000000000000000000000000000000000000000000000000000000081526004016106b7906111c9565b60405180910390fd5b6001600082815481106106d6576106d561114e565b5b906000526020600020906005020160030160006101000a81548160ff02191690831515021790555050565b600160009054906101000a900473ffffffffffffffffffffffffffffffffffffffff1673ffffffffffffffffffffffffffffffffffffffff163373ffffffffffffffffffffffffffffffffffffffff1614610791576040517f08c379a0000000000000000000000000000000000000000000000000000000008152600401610788906110c2565b60405180910390fd5b60008054905082106107d8576040517f08c379a00000000000000000000000000000000000000000000000000000000081526004016107cf9061112e565b60405180910390fd5b600082815481106107ec576107eb61114e565b5b906000526020600020906005020160030160009054906101000a900460ff161561084b576040517f08c379a0000000000000000000000000000000000000000000000000000000008152600401610842906111c9565b60405180910390fd5b80600083815481106108605761085f61114e565b5b9060005260206000209060050201600201908161087d9190611395565b505050565b600160009054906101000a900473ffffffffffffffffffffffffffffffffffffffff1673ffffffffffffffffffffffffffffffffffffffff163373ffffffffffffffffffffffffffffffffffffffff1614610912576040517f08c379a0000000000000000000000000000000000000000000000000000000008152600401610909906110c2565b60405180910390fd5b60006040518060a001604052808581526020018481526020016040518060400160405280600381526020017f302d300000000000000000000000000000000000000000000000000000000000815250815260200160001515815260200183815250908060018154018082558091505060019003906000526020600020906005020160009091909190915060008201518160000190816109b19190611395565b5060208201518160010190816109c79190611395565b5060408201518160020190816109dd9190611395565b5060608201518160030160006101000a81548160ff021916908315150217905550608082015181600401555050505050565b600081519050919050565b600082825260208201905092915050565b6000819050602082019050919050565b600081519050919050565b600082825260208201905092915050565b60005b83811015610a75578082015181840152602081019050610a5a565b60008484015250505050565b6000601f19601f8301169050919050565b6000610a9d82610a3b565b610aa78185610a46565b9350610ab7818560208601610a57565b610ac081610a81565b840191505092915050565b60008115159050919050565b610ae081610acb565b82525050565b6000819050919050565b610af981610ae6565b82525050565b600060a0830160008301518482036000860152610b1c8282610a92565b91505060208301518482036020860152610b368282610a92565b91505060408301518482036040860152610b508282610a92565b9150506060830151610b656060860182610ad7565b506080830151610b786080860182610af0565b508091505092915050565b6000610b8f8383610aff565b905092915050565b6000602082019050919050565b6000610baf82610a0f565b610bb98185610a1a565b935083602082028501610bcb85610a2b565b8060005b85811015610c075784840389528151610be88582610b83565b9450610bf383610b97565b925060208a01995050600181019050610bcf565b50829750879550505050505092915050565b60006020820190508181036000830152610c338184610ba4565b905092915050565b6000604051905090565b600080fd5b600080fd5b610c5881610ae6565b8114610c6357600080fd5b50565b600081359050610c7581610c4f565b92915050565b600060208284031215610c9157610c90610c45565b5b6000610c9f84828501610c66565b91505092915050565b600082825260208201905092915050565b6000610cc482610a3b565b610cce8185610ca8565b9350610cde818560208601610a57565b610ce781610a81565b840191505092915050565b610cfb81610acb565b82525050565b610d0a81610ae6565b82525050565b600060a0820190508181036000830152610d2a8188610cb9565b90508181036020830152610d3e8187610cb9565b90508181036040830152610d528186610cb9565b9050610d616060830185610cf2565b610d6e6080830184610d01565b9695505050505050565b600073ffffffffffffffffffffffffffffffffffffffff82169050919050565b6000610da382610d78565b9050919050565b610db381610d98565b82525050565b6000602082019050610dce6000830184610daa565b92915050565b600080fd5b600080fd5b7f4e487b7100000000000000000000000000000000000000000000000000000000600052604160045260246000fd5b610e1682610a81565b810181811067ffffffffffffffff82111715610e3557610e34610dde565b5b80604052505050565b6000610e48610c3b565b9050610e548282610e0d565b919050565b600067ffffffffffffffff821115610e7457610e73610dde565b5b610e7d82610a81565b9050602081019050919050565b82818337600083830152505050565b6000610eac610ea784610e59565b610e3e565b905082815260208101848484011115610ec857610ec7610dd9565b5b610ed3848285610e8a565b509392505050565b600082601f830112610ef057610eef610dd4565b5b8135610f00848260208601610e99565b91505092915050565b60008060408385031215610f2057610f1f610c45565b5b6000610f2e85828601610c66565b925050602083013567ffffffffffffffff811115610f4f57610f4e610c4a565b5b610f5b85828601610edb565b9150509250929050565b600080600060608486031215610f7e57610f7d610c45565b5b600084013567ffffffffffffffff811115610f9c57610f9b610c4a565b5b610fa886828701610edb565b935050602084013567ffffffffffffffff811115610fc957610fc8610c4a565b5b610fd586828701610edb565b9250506040610fe686828701610c66565b9150509250925092565b7f4e487b7100000000000000000000000000000000000000000000000000000000600052602260045260246000fd5b6000600282049050600182168061103757607f821691505b60208210810361104a57611049610ff0565b5b50919050565b7f4f6e6c79206f7261636c652063616e20706572666f726d20746869732061637460008201527f696f6e0000000000000000000000000000000000000000000000000000000000602082015250565b60006110ac602383610ca8565b91506110b782611050565b604082019050919050565b600060208201905081810360008301526110db8161109f565b9050919050565b7f4d6174636820646f6573206e6f74206578697374000000000000000000000000600082015250565b6000611118601483610ca8565b9150611123826110e2565b602082019050919050565b600060208201905081810360008301526111478161110b565b9050919050565b7f4e487b7100000000000000000000000000000000000000000000000000000000600052603260045260246000fd5b7f4d6174636820697320616c72656164792066696e697368656400000000000000600082015250565b60006111b3601983610ca8565b91506111be8261117d565b602082019050919050565b600060208201905081810360008301526111e2816111a6565b9050919050565b60008190508160005260206000209050919050565b60006020601f8301049050919050565b600082821b905092915050565b60006008830261124b7fffffffffffffffffffffffffffffffffffffffffffffffffffffffffffffffff8261120e565b611255868361120e565b95508019841693508086168417925050509392505050565b6000819050919050565b600061129261128d61128884610ae6565b61126d565b610ae6565b9050919050565b6000819050919050565b6112ac83611277565b6112c06112b882611299565b84845461121b565b825550505050565b600090565b6112d56112c8565b6112e08184846112a3565b505050565b5b81811015611304576112f96000826112cd565b6001810190506112e6565b5050565b601f8211156113495761131a816111e9565b611323846111fe565b81016020851015611332578190505b61134661133e856111fe565b8301826112e5565b50505b505050565b600082821c905092915050565b600061136c6000198460080261134e565b1980831691505092915050565b6000611385838361135b565b9150826002028217905092915050565b61139e82610a3b565b67ffffffffffffffff8111156113b7576113b6610dde565b5b6113c1825461101f565b6113cc828285611308565b600060209050601f8311600181146113ff57600084156113ed578287015190505b6113f78582611379565b86555061145f565b601f19841661140d866111e9565b60005b8281101561143557848901518255600182019150602085019450602081019050611410565b86831015611452578489015161144e601f89168261135b565b8355505b6001600288020188555050505b50505050505056fea26469706673582212203b3f4bcc30ffad9b695cc76cfc783f6476b92e6d6320a948da568531527cb65164736f6c634300081b0033",
  "linkReferences": {},
  "deployedLinkReferences": {}
}